{
  "contractName": "AllowanceCrowdsaleImpl",
  "abi": [
    {
      "constant": true,
      "inputs": [],
      "name": "rate",
      "outputs": [
        {
          "name": "",
          "type": "uint256"
        }
      ],
      "payable": false,
      "stateMutability": "view",
      "type": "function"
    },
    {
      "constant": true,
      "inputs": [],
      "name": "weiRaised",
      "outputs": [
        {
          "name": "",
          "type": "uint256"
        }
      ],
      "payable": false,
      "stateMutability": "view",
      "type": "function"
    },
    {
      "constant": true,
      "inputs": [],
      "name": "wallet",
      "outputs": [
        {
          "name": "",
          "type": "address"
        }
      ],
      "payable": false,
      "stateMutability": "view",
      "type": "function"
    },
    {
      "constant": true,
      "inputs": [],
      "name": "remainingTokens",
      "outputs": [
        {
          "name": "",
          "type": "uint256"
        }
      ],
      "payable": false,
      "stateMutability": "view",
      "type": "function"
    },
    {
      "constant": true,
      "inputs": [],
      "name": "tokenWallet",
      "outputs": [
        {
          "name": "",
          "type": "address"
        }
      ],
      "payable": false,
      "stateMutability": "view",
      "type": "function"
    },
    {
      "constant": false,
      "inputs": [
        {
          "name": "_beneficiary",
          "type": "address"
        }
      ],
      "name": "buyTokens",
      "outputs": [],
      "payable": true,
      "stateMutability": "payable",
      "type": "function"
    },
    {
      "constant": true,
      "inputs": [],
      "name": "token",
      "outputs": [
        {
          "name": "",
          "type": "address"
        }
      ],
      "payable": false,
      "stateMutability": "view",
      "type": "function"
    },
    {
      "inputs": [
        {
          "name": "_rate",
          "type": "uint256"
        },
        {
          "name": "_wallet",
          "type": "address"
        },
        {
          "name": "_token",
          "type": "address"
        },
        {
          "name": "_tokenWallet",
          "type": "address"
        }
      ],
      "payable": false,
      "stateMutability": "nonpayable",
      "type": "constructor"
    },
    {
      "payable": true,
      "stateMutability": "payable",
      "type": "fallback"
    },
    {
      "anonymous": false,
      "inputs": [
        {
          "indexed": true,
          "name": "purchaser",
          "type": "address"
        },
        {
          "indexed": true,
          "name": "beneficiary",
          "type": "address"
        },
        {
          "indexed": false,
          "name": "value",
          "type": "uint256"
        },
        {
          "indexed": false,
          "name": "amount",
          "type": "uint256"
        }
      ],
      "name": "TokenPurchase",
      "type": "event"
    }
  ],
  "bytecode": "0x608060405234801561001057600080fd5b506040516080806109aa833981018060405281019080805190602001909291908051906020019092919080519060200190929190805190602001909291905050508084848460008311151561006457600080fd5b600073ffffffffffffffffffffffffffffffffffffffff168273ffffffffffffffffffffffffffffffffffffffff16141515156100a057600080fd5b600073ffffffffffffffffffffffffffffffffffffffff168173ffffffffffffffffffffffffffffffffffffffff16141515156100dc57600080fd5b8260028190555081600160006101000a81548173ffffffffffffffffffffffffffffffffffffffff021916908373ffffffffffffffffffffffffffffffffffffffff160217905550806000806101000a81548173ffffffffffffffffffffffffffffffffffffffff021916908373ffffffffffffffffffffffffffffffffffffffff160217905550505050600073ffffffffffffffffffffffffffffffffffffffff168173ffffffffffffffffffffffffffffffffffffffff16141515156101a357600080fd5b80600460006101000a81548173ffffffffffffffffffffffffffffffffffffffff021916908373ffffffffffffffffffffffffffffffffffffffff16021790555050505050506107b2806101f86000396000f300608060405260043610610083576000357c0100000000000000000000000000000000000000000000000000000000900463ffffffff1680632c4e722e1461008e5780634042b66f146100b9578063521eb273146100e4578063bf5839031461013b578063bff99c6c14610166578063ec8ac4d8146101bd578063fc0c546a146101f3575b61008c3361024a565b005b34801561009a57600080fd5b506100a3610318565b6040518082815260200191505060405180910390f35b3480156100c557600080fd5b506100ce61031e565b6040518082815260200191505060405180910390f35b3480156100f057600080fd5b506100f9610324565b604051808273ffffffffffffffffffffffffffffffffffffffff1673ffffffffffffffffffffffffffffffffffffffff16815260200191505060405180910390f35b34801561014757600080fd5b5061015061034a565b6040518082815260200191505060405180910390f35b34801561017257600080fd5b5061017b61049e565b604051808273ffffffffffffffffffffffffffffffffffffffff1673ffffffffffffffffffffffffffffffffffffffff16815260200191505060405180910390f35b6101f1600480360381019080803573ffffffffffffffffffffffffffffffffffffffff16906020019092919050505061024a565b005b3480156101ff57600080fd5b506102086104c4565b604051808273ffffffffffffffffffffffffffffffffffffffff1673ffffffffffffffffffffffffffffffffffffffff16815260200191505060405180910390f35b60008034915061025a83836104e9565b61026382610539565b905061027a8260035461055790919063ffffffff16565b60038190555061028a8382610573565b8273ffffffffffffffffffffffffffffffffffffffff163373ffffffffffffffffffffffffffffffffffffffff167f623b3804fa71d67900d064613da8f94b9617215ee90799290593e1745087ad188484604051808381526020018281526020019250505060405180910390a36103018383610581565b610309610585565b61031383836105f0565b505050565b60025481565b60035481565b600160009054906101000a900473ffffffffffffffffffffffffffffffffffffffff1681565b60008060009054906101000a900473ffffffffffffffffffffffffffffffffffffffff1673ffffffffffffffffffffffffffffffffffffffff1663dd62ed3e600460009054906101000a900473ffffffffffffffffffffffffffffffffffffffff16306040518363ffffffff167c0100000000000000000000000000000000000000000000000000000000028152600401808373ffffffffffffffffffffffffffffffffffffffff1673ffffffffffffffffffffffffffffffffffffffff1681526020018273ffffffffffffffffffffffffffffffffffffffff1673ffffffffffffffffffffffffffffffffffffffff16815260200192505050602060405180830381600087803b15801561045e57600080fd5b505af1158015610472573d6000803e3d6000fd5b505050506040513d602081101561048857600080fd5b8101908080519060200190929190505050905090565b600460009054906101000a900473ffffffffffffffffffffffffffffffffffffffff1681565b6000809054906101000a900473ffffffffffffffffffffffffffffffffffffffff1681565b600073ffffffffffffffffffffffffffffffffffffffff168273ffffffffffffffffffffffffffffffffffffffff161415151561052557600080fd5b6000811415151561053557600080fd5b5050565b6000610550600254836105f490919063ffffffff16565b9050919050565b6000818301905082811015151561056a57fe5b80905092915050565b61057d828261062c565b5050565b5050565b600160009054906101000a900473ffffffffffffffffffffffffffffffffffffffff1673ffffffffffffffffffffffffffffffffffffffff166108fc349081150290604051600060405180830381858888f193505050501580156105ed573d6000803e3d6000fd5b50565b5050565b6000808314156106075760009050610626565b818302905081838281151561061857fe5b0414151561062257fe5b8090505b92915050565b6000809054906101000a900473ffffffffffffffffffffffffffffffffffffffff1673ffffffffffffffffffffffffffffffffffffffff166323b872dd600460009054906101000a900473ffffffffffffffffffffffffffffffffffffffff1684846040518463ffffffff167c0100000000000000000000000000000000000000000000000000000000028152600401808473ffffffffffffffffffffffffffffffffffffffff1673ffffffffffffffffffffffffffffffffffffffff1681526020018373ffffffffffffffffffffffffffffffffffffffff1673ffffffffffffffffffffffffffffffffffffffff1681526020018281526020019350505050602060405180830381600087803b15801561074657600080fd5b505af115801561075a573d6000803e3d6000fd5b505050506040513d602081101561077057600080fd5b81019080805190602001909291905050505050505600a165627a7a7230582010d5bf65b06f7c601cedfebab631ddf094ea1aefad64119cc48ec14de49d6a4f0029",
  "source": "pragma solidity ^0.4.21;\n\nimport \"../token/ERC20/ERC20.sol\";\nimport \"../crowdsale/emission/AllowanceCrowdsale.sol\";\n\n\ncontract AllowanceCrowdsaleImpl is AllowanceCrowdsale {\n\n  function AllowanceCrowdsaleImpl (\n    uint256 _rate,\n    address _wallet,\n    ERC20 _token,\n    address _tokenWallet\n  ) \n    public\n    Crowdsale(_rate, _wallet, _token)\n    AllowanceCrowdsale(_tokenWallet)\n  {\n  }\n\n}\n",
  "sourcePath": "/home/scientistnik/fastspace/karma/inheritance/contracts/zeppelin/contracts/mocks/AllowanceCrowdsaleImpl.sol",
  "compiler": {
    "name": "solc",
    "version": "0.4.23+commit.124ca40d.Emscripten.clang"
  },
  "schemaVersion": "2.0.0",
  "updatedAt": "2018-05-12T19:26:33.517Z"
}