{
  "contractName": "PostDeliveryCrowdsaleImpl",
  "abi": [
    {
      "constant": true,
      "inputs": [],
      "name": "hasClosed",
      "outputs": [
        {
          "name": "",
          "type": "bool"
        }
      ],
      "payable": false,
      "stateMutability": "view",
      "type": "function"
    },
    {
      "constant": true,
      "inputs": [
        {
          "name": "",
          "type": "address"
        }
      ],
      "name": "balances",
      "outputs": [
        {
          "name": "",
          "type": "uint256"
        }
      ],
      "payable": false,
      "stateMutability": "view",
      "type": "function"
    },
    {
      "constant": true,
      "inputs": [],
      "name": "rate",
      "outputs": [
        {
          "name": "",
          "type": "uint256"
        }
      ],
      "payable": false,
      "stateMutability": "view",
      "type": "function"
    },
    {
      "constant": true,
      "inputs": [],
      "name": "weiRaised",
      "outputs": [
        {
          "name": "",
          "type": "uint256"
        }
      ],
      "payable": false,
      "stateMutability": "view",
      "type": "function"
    },
    {
      "constant": true,
      "inputs": [],
      "name": "closingTime",
      "outputs": [
        {
          "name": "",
          "type": "uint256"
        }
      ],
      "payable": false,
      "stateMutability": "view",
      "type": "function"
    },
    {
      "constant": true,
      "inputs": [],
      "name": "wallet",
      "outputs": [
        {
          "name": "",
          "type": "address"
        }
      ],
      "payable": false,
      "stateMutability": "view",
      "type": "function"
    },
    {
      "constant": false,
      "inputs": [],
      "name": "withdrawTokens",
      "outputs": [],
      "payable": false,
      "stateMutability": "nonpayable",
      "type": "function"
    },
    {
      "constant": true,
      "inputs": [],
      "name": "openingTime",
      "outputs": [
        {
          "name": "",
          "type": "uint256"
        }
      ],
      "payable": false,
      "stateMutability": "view",
      "type": "function"
    },
    {
      "constant": false,
      "inputs": [
        {
          "name": "_beneficiary",
          "type": "address"
        }
      ],
      "name": "buyTokens",
      "outputs": [],
      "payable": true,
      "stateMutability": "payable",
      "type": "function"
    },
    {
      "constant": true,
      "inputs": [],
      "name": "token",
      "outputs": [
        {
          "name": "",
          "type": "address"
        }
      ],
      "payable": false,
      "stateMutability": "view",
      "type": "function"
    },
    {
      "inputs": [
        {
          "name": "_openingTime",
          "type": "uint256"
        },
        {
          "name": "_closingTime",
          "type": "uint256"
        },
        {
          "name": "_rate",
          "type": "uint256"
        },
        {
          "name": "_wallet",
          "type": "address"
        },
        {
          "name": "_token",
          "type": "address"
        }
      ],
      "payable": false,
      "stateMutability": "nonpayable",
      "type": "constructor"
    },
    {
      "payable": true,
      "stateMutability": "payable",
      "type": "fallback"
    },
    {
      "anonymous": false,
      "inputs": [
        {
          "indexed": true,
          "name": "purchaser",
          "type": "address"
        },
        {
          "indexed": true,
          "name": "beneficiary",
          "type": "address"
        },
        {
          "indexed": false,
          "name": "value",
          "type": "uint256"
        },
        {
          "indexed": false,
          "name": "amount",
          "type": "uint256"
        }
      ],
      "name": "TokenPurchase",
      "type": "event"
    }
  ],
  "bytecode": "0x608060405234801561001057600080fd5b5060405160a0806109c88339810180604052810190808051906020019092919080519060200190929190805190602001909291908051906020019092919080519060200190929190505050848484848460008311151561006f57600080fd5b600073ffffffffffffffffffffffffffffffffffffffff168273ffffffffffffffffffffffffffffffffffffffff16141515156100ab57600080fd5b600073ffffffffffffffffffffffffffffffffffffffff168173ffffffffffffffffffffffffffffffffffffffff16141515156100e757600080fd5b8260028190555081600160006101000a81548173ffffffffffffffffffffffffffffffffffffffff021916908373ffffffffffffffffffffffffffffffffffffffff160217905550806000806101000a81548173ffffffffffffffffffffffffffffffffffffffff021916908373ffffffffffffffffffffffffffffffffffffffff16021790555050505042821015151561018157600080fd5b81811015151561019057600080fd5b816004819055508060058190555050505050505050610814806101b46000396000f3006080604052600436106100a4576000357c0100000000000000000000000000000000000000000000000000000000900463ffffffff1680631515bc2b146100af57806327e235e3146100de5780632c4e722e146101355780634042b66f146101605780634b6753bc1461018b578063521eb273146101b65780638d8f2adb1461020d578063b7a8807c14610224578063ec8ac4d81461024f578063fc0c546a14610285575b6100ad336102dc565b005b3480156100bb57600080fd5b506100c46103aa565b604051808215151515815260200191505060405180910390f35b3480156100ea57600080fd5b5061011f600480360381019080803573ffffffffffffffffffffffffffffffffffffffff1690602001909291905050506103b6565b6040518082815260200191505060405180910390f35b34801561014157600080fd5b5061014a6103ce565b6040518082815260200191505060405180910390f35b34801561016c57600080fd5b506101756103d4565b6040518082815260200191505060405180910390f35b34801561019757600080fd5b506101a06103da565b6040518082815260200191505060405180910390f35b3480156101c257600080fd5b506101cb6103e0565b604051808273ffffffffffffffffffffffffffffffffffffffff1673ffffffffffffffffffffffffffffffffffffffff16815260200191505060405180910390f35b34801561021957600080fd5b50610222610406565b005b34801561023057600080fd5b506102396104be565b6040518082815260200191505060405180910390f35b610283600480360381019080803573ffffffffffffffffffffffffffffffffffffffff1690602001909291905050506102dc565b005b34801561029157600080fd5b5061029a6104c4565b604051808273ffffffffffffffffffffffffffffffffffffffff1673ffffffffffffffffffffffffffffffffffffffff16815260200191505060405180910390f35b6000803491506102ec83836104e9565b6102f582610516565b905061030c8260035461053490919063ffffffff16565b60038190555061031c8382610550565b8273ffffffffffffffffffffffffffffffffffffffff163373ffffffffffffffffffffffffffffffffffffffff167f623b3804fa71d67900d064613da8f94b9617215ee90799290593e1745087ad188484604051808381526020018281526020019250505060405180910390a361039383836105e9565b61039b6105ed565b6103a58383610658565b505050565b60006005544211905090565b60066020528060005260406000206000915090505481565b60025481565b60035481565b60055481565b600160009054906101000a900473ffffffffffffffffffffffffffffffffffffffff1681565b60006104106103aa565b151561041b57600080fd5b600660003373ffffffffffffffffffffffffffffffffffffffff1673ffffffffffffffffffffffffffffffffffffffff16815260200190815260200160002054905060008111151561046c57600080fd5b6000600660003373ffffffffffffffffffffffffffffffffffffffff1673ffffffffffffffffffffffffffffffffffffffff168152602001908152602001600020819055506104bb338261065c565b50565b60045481565b6000809054906101000a900473ffffffffffffffffffffffffffffffffffffffff1681565b60045442101580156104fd57506005544211155b151561050857600080fd5b6105128282610760565b5050565b600061052d600254836107b090919063ffffffff16565b9050919050565b6000818301905082811015151561054757fe5b80905092915050565b6105a281600660008573ffffffffffffffffffffffffffffffffffffffff1673ffffffffffffffffffffffffffffffffffffffff1681526020019081526020016000205461053490919063ffffffff16565b600660008473ffffffffffffffffffffffffffffffffffffffff1673ffffffffffffffffffffffffffffffffffffffff168152602001908152602001600020819055505050565b5050565b600160009054906101000a900473ffffffffffffffffffffffffffffffffffffffff1673ffffffffffffffffffffffffffffffffffffffff166108fc349081150290604051600060405180830381858888f19350505050158015610655573d6000803e3d6000fd5b50565b5050565b6000809054906101000a900473ffffffffffffffffffffffffffffffffffffffff1673ffffffffffffffffffffffffffffffffffffffff1663a9059cbb83836040518363ffffffff167c0100000000000000000000000000000000000000000000000000000000028152600401808373ffffffffffffffffffffffffffffffffffffffff1673ffffffffffffffffffffffffffffffffffffffff16815260200182815260200192505050602060405180830381600087803b15801561072057600080fd5b505af1158015610734573d6000803e3d6000fd5b505050506040513d602081101561074a57600080fd5b8101908080519060200190929190505050505050565b600073ffffffffffffffffffffffffffffffffffffffff168273ffffffffffffffffffffffffffffffffffffffff161415151561079c57600080fd5b600081141515156107ac57600080fd5b5050565b6000808314156107c357600090506107e2565b81830290508183828115156107d457fe5b041415156107de57fe5b8090505b929150505600a165627a7a72305820bc17ad6f1e6ec57df97473312d393304906b329a57b755d82cf74452d3ef4de10029",
  "source": "pragma solidity ^0.4.21;\n\nimport \"../token/ERC20/ERC20.sol\";\nimport \"../crowdsale/distribution/PostDeliveryCrowdsale.sol\";\n\n\ncontract PostDeliveryCrowdsaleImpl is PostDeliveryCrowdsale {\n\n  function PostDeliveryCrowdsaleImpl (\n    uint256 _openingTime,\n    uint256 _closingTime,\n    uint256 _rate,\n    address _wallet,\n    ERC20 _token\n  ) \n    public\n    TimedCrowdsale(_openingTime, _closingTime)\n    Crowdsale(_rate, _wallet, _token)\n  {\n  }\n\n}\n",
  "sourcePath": "/home/scientistnik/fastspace/karma/inheritance/contracts/zeppelin/contracts/mocks/PostDeliveryCrowdsaleImpl.sol",
  "compiler": {
    "name": "solc",
    "version": "0.4.23+commit.124ca40d.Emscripten.clang"
  },
  "schemaVersion": "2.0.0",
  "updatedAt": "2018-05-12T19:26:33.529Z"
}