{
  "contractName": "SignatureBouncerMock",
  "abi": [
    {
      "constant": true,
      "inputs": [
        {
          "name": "addr",
          "type": "address"
        },
        {
          "name": "roleName",
          "type": "string"
        }
      ],
      "name": "checkRole",
      "outputs": [],
      "payable": false,
      "stateMutability": "view",
      "type": "function"
    },
    {
      "constant": false,
      "inputs": [
        {
          "name": "_bouncer",
          "type": "address"
        }
      ],
      "name": "removeBouncer",
      "outputs": [],
      "payable": false,
      "stateMutability": "nonpayable",
      "type": "function"
    },
    {
      "constant": true,
      "inputs": [
        {
          "name": "addr",
          "type": "address"
        },
        {
          "name": "roleName",
          "type": "string"
        }
      ],
      "name": "hasRole",
      "outputs": [
        {
          "name": "",
          "type": "bool"
        }
      ],
      "payable": false,
      "stateMutability": "view",
      "type": "function"
    },
    {
      "constant": false,
      "inputs": [
        {
          "name": "_bouncer",
          "type": "address"
        }
      ],
      "name": "addBouncer",
      "outputs": [],
      "payable": false,
      "stateMutability": "nonpayable",
      "type": "function"
    },
    {
      "constant": true,
      "inputs": [],
      "name": "owner",
      "outputs": [
        {
          "name": "",
          "type": "address"
        }
      ],
      "payable": false,
      "stateMutability": "view",
      "type": "function"
    },
    {
      "constant": true,
      "inputs": [],
      "name": "ROLE_BOUNCER",
      "outputs": [
        {
          "name": "",
          "type": "string"
        }
      ],
      "payable": false,
      "stateMutability": "view",
      "type": "function"
    },
    {
      "constant": false,
      "inputs": [
        {
          "name": "newOwner",
          "type": "address"
        }
      ],
      "name": "transferOwnership",
      "outputs": [],
      "payable": false,
      "stateMutability": "nonpayable",
      "type": "function"
    },
    {
      "anonymous": false,
      "inputs": [
        {
          "indexed": false,
          "name": "addr",
          "type": "address"
        },
        {
          "indexed": false,
          "name": "roleName",
          "type": "string"
        }
      ],
      "name": "RoleAdded",
      "type": "event"
    },
    {
      "anonymous": false,
      "inputs": [
        {
          "indexed": false,
          "name": "addr",
          "type": "address"
        },
        {
          "indexed": false,
          "name": "roleName",
          "type": "string"
        }
      ],
      "name": "RoleRemoved",
      "type": "event"
    },
    {
      "anonymous": false,
      "inputs": [
        {
          "indexed": true,
          "name": "previousOwner",
          "type": "address"
        },
        {
          "indexed": true,
          "name": "newOwner",
          "type": "address"
        }
      ],
      "name": "OwnershipTransferred",
      "type": "event"
    },
    {
      "constant": true,
      "inputs": [
        {
          "name": "_address",
          "type": "address"
        },
        {
          "name": "_sig",
          "type": "bytes"
        }
      ],
      "name": "checkValidSignature",
      "outputs": [
        {
          "name": "",
          "type": "bool"
        }
      ],
      "payable": false,
      "stateMutability": "view",
      "type": "function"
    },
    {
      "constant": true,
      "inputs": [
        {
          "name": "_sig",
          "type": "bytes"
        }
      ],
      "name": "onlyWithValidSignature",
      "outputs": [],
      "payable": false,
      "stateMutability": "view",
      "type": "function"
    }
  ],
  "bytecode": "0x6080604052336000806101000a81548173ffffffffffffffffffffffffffffffffffffffff021916908373ffffffffffffffffffffffffffffffffffffffff160217905550610f77806100536000396000f300608060405260043610610099576000357c0100000000000000000000000000000000000000000000000000000000900463ffffffff1680630988ca8c1461009e5780631479290e14610127578063217fe6c61461016a57806368b51ac71461020b5780636d5b9427146102ac578063888764c8146103155780638da5cb5b14610358578063d466ab6b146103af578063f2fde38b1461043f575b600080fd5b3480156100aa57600080fd5b50610125600480360381019080803573ffffffffffffffffffffffffffffffffffffffff169060200190929190803590602001908201803590602001908080601f0160208091040260200160405190810160405280939291908181526020018383808284378201915050505050509192919290505050610482565b005b34801561013357600080fd5b50610168600480360381019080803573ffffffffffffffffffffffffffffffffffffffff169060200190929190505050610503565b005b34801561017657600080fd5b506101f1600480360381019080803573ffffffffffffffffffffffffffffffffffffffff169060200190929190803590602001908201803590602001908080601f01602080910402602001604051908101604052809392919081815260200183838082843782019150505050505091929192905050506105dc565b604051808215151515815260200191505060405180910390f35b34801561021757600080fd5b50610292600480360381019080803573ffffffffffffffffffffffffffffffffffffffff169060200190929190803590602001908201803590602001908080601f0160208091040260200160405190810160405280939291908181526020018383808284378201915050505050509192919290505050610663565b604051808215151515815260200191505060405180910390f35b3480156102b857600080fd5b50610313600480360381019080803590602001908201803590602001908080601f0160208091040260200160405190810160405280939291908181526020018383808284378201915050505050509192919290505050610677565b005b34801561032157600080fd5b50610356600480360381019080803573ffffffffffffffffffffffffffffffffffffffff169060200190929190505050610691565b005b34801561036457600080fd5b5061036d61076a565b604051808273ffffffffffffffffffffffffffffffffffffffff1673ffffffffffffffffffffffffffffffffffffffff16815260200191505060405180910390f35b3480156103bb57600080fd5b506103c461078f565b6040518080602001828103825283818151815260200191508051906020019080838360005b838110156104045780820151818401526020810190506103e9565b50505050905090810190601f1680156104315780820380516001836020036101000a031916815260200191505b509250505060405180910390f35b34801561044b57600080fd5b50610480600480360381019080803573ffffffffffffffffffffffffffffffffffffffff1690602001909291905050506107c8565b005b6104ff826001836040518082805190602001908083835b6020831015156104be5780518252602082019150602081019050602083039250610499565b6001836020036101000a038019825116818451168082178552505050505050905001915050908152602001604051809103902061091d90919063ffffffff16565b5050565b6000809054906101000a900473ffffffffffffffffffffffffffffffffffffffff1673ffffffffffffffffffffffffffffffffffffffff163373ffffffffffffffffffffffffffffffffffffffff1614151561055e57600080fd5b600073ffffffffffffffffffffffffffffffffffffffff168173ffffffffffffffffffffffffffffffffffffffff161415151561059a57600080fd5b6105d9816040805190810160405280600781526020017f626f756e63657200000000000000000000000000000000000000000000000000815250610936565b50565b600061065b836001846040518082805190602001908083835b60208310151561061a57805182526020820191506020810190506020830392506105f5565b6001836020036101000a0380198251168184511680821785525050505050509050019150509081526020016040518091039020610a8790919063ffffffff16565b905092915050565b600061066f8383610ae0565b905092915050565b806106823382610ae0565b151561068d57600080fd5b5050565b6000809054906101000a900473ffffffffffffffffffffffffffffffffffffffff1673ffffffffffffffffffffffffffffffffffffffff163373ffffffffffffffffffffffffffffffffffffffff161415156106ec57600080fd5b600073ffffffffffffffffffffffffffffffffffffffff168173ffffffffffffffffffffffffffffffffffffffff161415151561072857600080fd5b610767816040805190810160405280600781526020017f626f756e63657200000000000000000000000000000000000000000000000000815250610b87565b50565b6000809054906101000a900473ffffffffffffffffffffffffffffffffffffffff1681565b6040805190810160405280600781526020017f626f756e6365720000000000000000000000000000000000000000000000000081525081565b6000809054906101000a900473ffffffffffffffffffffffffffffffffffffffff1673ffffffffffffffffffffffffffffffffffffffff163373ffffffffffffffffffffffffffffffffffffffff1614151561082357600080fd5b600073ffffffffffffffffffffffffffffffffffffffff168173ffffffffffffffffffffffffffffffffffffffff161415151561085f57600080fd5b8073ffffffffffffffffffffffffffffffffffffffff166000809054906101000a900473ffffffffffffffffffffffffffffffffffffffff1673ffffffffffffffffffffffffffffffffffffffff167f8be0079c531659141344cd1fd0a4f28419497f9722a3daafe3b4186f6b6457e060405160405180910390a3806000806101000a81548173ffffffffffffffffffffffffffffffffffffffff021916908373ffffffffffffffffffffffffffffffffffffffff16021790555050565b6109278282610a87565b151561093257600080fd5b5050565b6109b3826001836040518082805190602001908083835b602083101515610972578051825260208201915060208101905060208303925061094d565b6001836020036101000a0380198251168184511680821785525050505050509050019150509081526020016040518091039020610cd890919063ffffffff16565b7fd211483f91fc6eff862467f8de606587a30c8fc9981056f051b897a418df803a8282604051808373ffffffffffffffffffffffffffffffffffffffff1673ffffffffffffffffffffffffffffffffffffffff16815260200180602001828103825283818151815260200191508051906020019080838360005b83811015610a48578082015181840152602081019050610a2d565b50505050905090810190601f168015610a755780820380516001836020036101000a031916815260200191505b50935050505060405180910390a15050565b60008260000160008373ffffffffffffffffffffffffffffffffffffffff1673ffffffffffffffffffffffffffffffffffffffff16815260200190815260200160002060009054906101000a900460ff16905092915050565b6000610b7f3084604051808373ffffffffffffffffffffffffffffffffffffffff1673ffffffffffffffffffffffffffffffffffffffff166c010000000000000000000000000281526014018273ffffffffffffffffffffffffffffffffffffffff1673ffffffffffffffffffffffffffffffffffffffff166c0100000000000000000000000002815260140192505050604051809103902083610d36565b905092915050565b610c04826001836040518082805190602001908083835b602083101515610bc35780518252602082019150602081019050602083039250610b9e565b6001836020036101000a0380198251168184511680821785525050505050509050019150509081526020016040518091039020610da690919063ffffffff16565b7fbfec83d64eaa953f2708271a023ab9ee82057f8f3578d548c1a4ba0b5b7004898282604051808373ffffffffffffffffffffffffffffffffffffffff1673ffffffffffffffffffffffffffffffffffffffff16815260200180602001828103825283818151815260200191508051906020019080838360005b83811015610c99578082015181840152602081019050610c7e565b50505050905090810190601f168015610cc65780820380516001836020036101000a031916815260200191505b50935050505060405180910390a15050565b60008260000160008373ffffffffffffffffffffffffffffffffffffffff1673ffffffffffffffffffffffffffffffffffffffff16815260200190815260200160002060006101000a81548160ff0219169083151502179055505050565b600080610d5c83610d4a8660001916610e04565b60001916610e5390919063ffffffff16565b9050610d9d816040805190810160405280600781526020017f626f756e636572000000000000000000000000000000000000000000000000008152506105dc565b91505092915050565b60018260000160008373ffffffffffffffffffffffffffffffffffffffff1673ffffffffffffffffffffffffffffffffffffffff16815260200190815260200160002060006101000a81548160ff0219169083151502179055505050565b60008160405180807f19457468657265756d205369676e6564204d6573736167653a0a333200000000815250601c01826000191660001916815260200191505060405180910390209050919050565b60008060008060418551141515610e6d5760009350610f42565b6020850151925060408501519150606085015160001a9050601b8160ff161015610e9857601b810190505b601b8160ff1614158015610eb05750601c8160ff1614155b15610ebe5760009350610f42565b600186828585604051600081526020016040526040518085600019166000191681526020018460ff1660ff1681526020018360001916600019168152602001826000191660001916815260200194505050505060206040516020810390808403906000865af1158015610f35573d6000803e3d6000fd5b5050506020604051035193505b505050929150505600a165627a7a723058208e8313b4be2dcf9527ea08ed9524a9546c54878a0e40989e10d8378999c297db0029",
  "source": "pragma solidity ^0.4.18;\n\nimport \"../access/SignatureBouncer.sol\";\n\n\ncontract SignatureBouncerMock is SignatureBouncer {\n  function checkValidSignature(address _address, bytes _sig)\n    public\n    view\n    returns (bool)\n  {\n    return isValidSignature(_address, _sig);\n  }\n\n  function onlyWithValidSignature(bytes _sig)\n    onlyValidSignature(_sig)\n    public\n    view\n  {\n\n  }\n}\n",
  "sourcePath": "/home/scientistnik/fastspace/karma/inheritance/contracts/zeppelin/contracts/mocks/BouncerMock.sol",
  "compiler": {
    "name": "solc",
    "version": "0.4.23+commit.124ca40d.Emscripten.clang"
  },
  "schemaVersion": "2.0.0",
  "updatedAt": "2018-05-12T19:26:33.518Z"
}