{
  "contractName": "Testamentum",
  "abi": [
    {
      "constant": true,
      "inputs": [],
      "name": "minimumPledge",
      "outputs": [
        {
          "name": "",
          "type": "uint256"
        }
      ],
      "payable": false,
      "stateMutability": "view",
      "type": "function"
    },
    {
      "constant": true,
      "inputs": [],
      "name": "owner",
      "outputs": [
        {
          "name": "",
          "type": "address"
        }
      ],
      "payable": false,
      "stateMutability": "view",
      "type": "function"
    },
    {
      "constant": false,
      "inputs": [
        {
          "name": "newOwner",
          "type": "address"
        }
      ],
      "name": "transferOwnership",
      "outputs": [],
      "payable": false,
      "stateMutability": "nonpayable",
      "type": "function"
    },
    {
      "payable": true,
      "stateMutability": "payable",
      "type": "fallback"
    },
    {
      "anonymous": false,
      "inputs": [
        {
          "indexed": false,
          "name": "deadAddress",
          "type": "address"
        }
      ],
      "name": "SignalingOfDead",
      "type": "event"
    },
    {
      "anonymous": false,
      "inputs": [
        {
          "indexed": true,
          "name": "previousOwner",
          "type": "address"
        },
        {
          "indexed": true,
          "name": "newOwner",
          "type": "address"
        }
      ],
      "name": "OwnershipTransferred",
      "type": "event"
    },
    {
      "constant": false,
      "inputs": [
        {
          "name": "minimum",
          "type": "uint256"
        }
      ],
      "name": "setWitnessCount",
      "outputs": [],
      "payable": false,
      "stateMutability": "nonpayable",
      "type": "function"
    },
    {
      "constant": false,
      "inputs": [
        {
          "name": "pledge",
          "type": "uint256"
        }
      ],
      "name": "setPledge",
      "outputs": [],
      "payable": false,
      "stateMutability": "nonpayable",
      "type": "function"
    },
    {
      "constant": false,
      "inputs": [
        {
          "name": "addresses",
          "type": "address[]"
        },
        {
          "name": "percents",
          "type": "uint256[]"
        }
      ],
      "name": "setRelatives",
      "outputs": [],
      "payable": false,
      "stateMutability": "nonpayable",
      "type": "function"
    },
    {
      "constant": false,
      "inputs": [],
      "name": "signalingOfDead",
      "outputs": [],
      "payable": false,
      "stateMutability": "nonpayable",
      "type": "function"
    },
    {
      "constant": false,
      "inputs": [],
      "name": "witnessAgree",
      "outputs": [],
      "payable": true,
      "stateMutability": "payable",
      "type": "function"
    },
    {
      "constant": false,
      "inputs": [],
      "name": "realize",
      "outputs": [],
      "payable": false,
      "stateMutability": "nonpayable",
      "type": "function"
    },
    {
      "constant": false,
      "inputs": [],
      "name": "block",
      "outputs": [],
      "payable": false,
      "stateMutability": "nonpayable",
      "type": "function"
    }
  ],
  "bytecode": "0x6080604052612760600355600060065560006007556000600855336000806101000a81548173ffffffffffffffffffffffffffffffffffffffff021916908373ffffffffffffffffffffffffffffffffffffffff160217905550610ec2806100686000396000f3006080604052600436106100a4576000357c0100000000000000000000000000000000000000000000000000000000900463ffffffff1680632e3dbde014610101578063406d880c1461012c578063455e1bec14610143578063575cb0f61461014d5780637daab725146101645780638da5cb5b1461020d578063a064ef8314610264578063b0119eab14610291578063dc3e6359146102be578063f2fde38b146102d5575b6000809054906101000a900473ffffffffffffffffffffffffffffffffffffffff1673ffffffffffffffffffffffffffffffffffffffff163373ffffffffffffffffffffffffffffffffffffffff161415156100ff57600080fd5b005b34801561010d57600080fd5b50610116610318565b6040518082815260200191505060405180910390f35b34801561013857600080fd5b5061014161031e565b005b61014b61069c565b005b34801561015957600080fd5b5061016261086a565b005b34801561017057600080fd5b5061020b60048036038101908080359060200190820180359060200190808060200260200160405190810160405280939291908181526020018383602002808284378201915050505050509192919290803590602001908201803590602001908080602002602001604051908101604052809392919081815260200183836020028082843782019150505050505091929192905050506108eb565b005b34801561021957600080fd5b50610222610a42565b604051808273ffffffffffffffffffffffffffffffffffffffff1673ffffffffffffffffffffffffffffffffffffffff16815260200191505060405180910390f35b34801561027057600080fd5b5061028f60048036038101908080359060200190929190505050610a67565b005b34801561029d57600080fd5b506102bc60048036038101908080359060200190929190505050610acc565b005b3480156102ca57600080fd5b506102d3610b31565b005b3480156102e157600080fd5b50610316600480360381019080803573ffffffffffffffffffffffffffffffffffffffff169060200190929190505050610d41565b005b60055481565b6000806000809150600090505b6001805490508110156103c2573373ffffffffffffffffffffffffffffffffffffffff1660018281548110151561035e57fe5b906000526020600020906002020160000160009054906101000a900473ffffffffffffffffffffffffffffffffffffffff1673ffffffffffffffffffffffffffffffffffffffff1614156103b557600191506103c2565b808060010191505061032b565b8115156103ce57600080fd5b426003546000809054906101000a900473ffffffffffffffffffffffffffffffffffffffff1673ffffffffffffffffffffffffffffffffffffffff1663f13a15066040518163ffffffff167c0100000000000000000000000000000000000000000000000000000000028152600401602060405180830381600087803b15801561045757600080fd5b505af115801561046b573d6000803e3d6000fd5b505050506040513d602081101561048157600080fd5b810190808051906020019092919050505001111515156104a057600080fd5b6000809054906101000a900473ffffffffffffffffffffffffffffffffffffffff1673ffffffffffffffffffffffffffffffffffffffff16639c03645e6040518163ffffffff167c0100000000000000000000000000000000000000000000000000000000028152600401600060405180830381600087803b15801561052557600080fd5b505af1158015610539573d6000803e3d6000fd5b50505050600092505b6001805490508310156105d1576064803073ffffffffffffffffffffffffffffffffffffffff163160018681548110151561057957fe5b9060005260206000209060020201600101540281151561059557fe5b0481151561059f57fe5b046001848154811015156105af57fe5b9060005260206000209060020201600101819055508280600101935050610542565b600092505b600180549050831015610697576001838154811015156105f257fe5b906000526020600020906002020160000160009054906101000a900473ffffffffffffffffffffffffffffffffffffffff1673ffffffffffffffffffffffffffffffffffffffff166108fc60018581548110151561064c57fe5b9060005260206000209060020201600101549081150290604051600060405180830381858888f19350505050158015610689573d6000803e3d6000fd5b5082806001019350506105d6565b505050565b600180549050600260085402101580156106b7575060055434115b801561070257506000600460003373ffffffffffffffffffffffffffffffffffffffff1673ffffffffffffffffffffffffffffffffffffffff16815260200190815260200160002054145b151561070d57600080fd5b34600460003373ffffffffffffffffffffffffffffffffffffffff1673ffffffffffffffffffffffffffffffffffffffff1681526020019081526020016000208190555060016006600082825401925050819055506000809054906101000a900473ffffffffffffffffffffffffffffffffffffffff1673ffffffffffffffffffffffffffffffffffffffff16313073ffffffffffffffffffffffffffffffffffffffff1631101580156107c5575060075460065410155b15610868576000809054906101000a900473ffffffffffffffffffffffffffffffffffffffff1673ffffffffffffffffffffffffffffffffffffffff1663fbaa237b6040518163ffffffff167c0100000000000000000000000000000000000000000000000000000000028152600401600060405180830381600087803b15801561084f57600080fd5b505af1158015610863573d6000803e3d6000fd5b505050505b565b6000809054906101000a900473ffffffffffffffffffffffffffffffffffffffff1673ffffffffffffffffffffffffffffffffffffffff166108fc3073ffffffffffffffffffffffffffffffffffffffff16319081150290604051600060405180830381858888f193505050501580156108e8573d6000803e3d6000fd5b50565b60008060009054906101000a900473ffffffffffffffffffffffffffffffffffffffff1673ffffffffffffffffffffffffffffffffffffffff163373ffffffffffffffffffffffffffffffffffffffff1614151561094857600080fd5b600090505b8251811015610a3d5760016040805190810160405280858481518110151561097157fe5b9060200190602002015173ffffffffffffffffffffffffffffffffffffffff16815260200184848151811015156109a457fe5b906020019060200201518152509080600181540180825580915050906001820390600052602060002090600202016000909192909190915060008201518160000160006101000a81548173ffffffffffffffffffffffffffffffffffffffff021916908373ffffffffffffffffffffffffffffffffffffffff16021790555060208201518160010155505050808060010191505061094d565b505050565b6000809054906101000a900473ffffffffffffffffffffffffffffffffffffffff1681565b6000809054906101000a900473ffffffffffffffffffffffffffffffffffffffff1673ffffffffffffffffffffffffffffffffffffffff163373ffffffffffffffffffffffffffffffffffffffff16141515610ac257600080fd5b8060078190555050565b6000809054906101000a900473ffffffffffffffffffffffffffffffffffffffff1673ffffffffffffffffffffffffffffffffffffffff163373ffffffffffffffffffffffffffffffffffffffff16141515610b2757600080fd5b8060058190555050565b6000806000809150600090505b600180549050811015610bd5573373ffffffffffffffffffffffffffffffffffffffff16600182815481101515610b7157fe5b906000526020600020906002020160000160009054906101000a900473ffffffffffffffffffffffffffffffffffffffff1673ffffffffffffffffffffffffffffffffffffffff161415610bc85760019150610bd5565b8080600101915050610b3e565b811515610be157600080fd5b600092505b600180549050831015610cc5573373ffffffffffffffffffffffffffffffffffffffff16600184815481101515610c1957fe5b906000526020600020906002020160000160009054906101000a900473ffffffffffffffffffffffffffffffffffffffff1673ffffffffffffffffffffffffffffffffffffffff161415610cb8576008600081548092919060010191905055506001600284815481101515610c8a57fe5b90600052602060002090602091828204019190066101000a81548160ff021916908315150217905550610cc5565b8280600101935050610be6565b600180549050600260085402101515610d3c577f3c3f05a401caaabd42f7c4306d1f62ba25049242c03acf72da1e090897067e2a30604051808273ffffffffffffffffffffffffffffffffffffffff1673ffffffffffffffffffffffffffffffffffffffff16815260200191505060405180910390a15b505050565b6000809054906101000a900473ffffffffffffffffffffffffffffffffffffffff1673ffffffffffffffffffffffffffffffffffffffff163373ffffffffffffffffffffffffffffffffffffffff16141515610d9c57600080fd5b600073ffffffffffffffffffffffffffffffffffffffff168173ffffffffffffffffffffffffffffffffffffffff1614151515610dd857600080fd5b8073ffffffffffffffffffffffffffffffffffffffff166000809054906101000a900473ffffffffffffffffffffffffffffffffffffffff1673ffffffffffffffffffffffffffffffffffffffff167f8be0079c531659141344cd1fd0a4f28419497f9722a3daafe3b4186f6b6457e060405160405180910390a3806000806101000a81548173ffffffffffffffffffffffffffffffffffffffff021916908373ffffffffffffffffffffffffffffffffffffffff160217905550505600a165627a7a72305820fa37c744fe9eeefaeaaa97651c82b068eb9bd82660a99bba1ee578b62739d98c0029",
  "source": "pragma solidity ^0.4.21;\n\nimport \"./zeppelin/contracts/ownership/Ownable.sol\";\nimport \"./Testator.sol\";\n\ncontract Testamentum is Ownable {\n\n  struct Relative {\n    address relative;\n    uint percent;\n  }\n\n  Relative[] relatives;\n  bool[] signaling;\n  uint waitAfterDead = 7 * 24 * 60;\n\n  mapping (address => uint) witnessBalances;\n  uint public minimumPledge;\n  uint witnessCount = 0;\n  uint minimumWitnessCount = 0;\n  uint quantity = 0;\n\n  event SignalingOfDead(address deadAddress);\n\n  modifier relativesOnly() {\n    bool isRelative = false;\n    for(uint i = 0; i < relatives.length; i++) {\n      if (relatives[i].relative == msg.sender) {\n        isRelative = true;\n        break;\n      }\n    }\n    \n    require (isRelative);\n    _;\n  }\n\n  function setWitnessCount(uint minimum) onlyOwner public {\n    minimumWitnessCount = minimum;\n  }\n\n  function setPledge(uint pledge) onlyOwner public {\n    minimumPledge = pledge;\n  }\n  \n  function setRelatives(address[] addresses, uint[] percents) onlyOwner public {\n    for (uint i = 0; i < addresses.length; i++)\n      relatives.push(Relative({relative: addresses[i], percent: percents[i]}));\n  }\n\n  function signalingOfDead() relativesOnly {\n    for (uint i = 0; i < relatives.length; i++) {\n      if (relatives[i].relative == msg.sender){\n        quantity ++;\n        signaling[i] = true;\n        break;\n      }\n    }\n\n    if (quantity * 2 >= relatives.length)\n      emit SignalingOfDead(this);\n  }\n\n  function witnessAgree() payable public {\n\n    require (quantity * 2 >= relatives.length &&\n              msg.value > minimumPledge && \n              witnessBalances[msg.sender] == 0);\n\n    witnessBalances[msg.sender] = msg.value;\n    witnessCount += 1;\n\n    if (address(this).balance >= address(owner).balance &&\n        witnessCount >= minimumWitnessCount)\n      Testator(owner).setDead();\n  }\n\n  function realize() relativesOnly {\n    require (Testator(owner).deadTime() + waitAfterDead <= now);\n\n    Testator(owner).giveBalance();\n    uint i = 0;\n\n    for (; i < relatives.length; i++)\n      relatives[i].percent = relatives[i].percent * address(this).balance / 100 / 100;\n\n    for (i = 0; i < relatives.length; i++)\n      relatives[i].relative.transfer(relatives[i].percent);\n\n    //witness transfer balance\n  }\n\n  function block() {\n    address(owner).transfer(address(this).balance);\n  }\n\n  function() onlyOwner payable public {}\n}",
  "sourcePath": "/home/scientistnik/fastspace/karma/inheritance/contracts/Testamentum.sol",
  "compiler": {
    "name": "solc",
    "version": "0.4.23+commit.124ca40d.Emscripten.clang"
  },
  "schemaVersion": "2.0.0",
  "updatedAt": "2018-05-13T06:13:18.143Z"
}